:100000000C9446000C9465000C9465000C946500FB
:100010000C9465000C9465000C9465000C946500CC
:100020000C9465000C9465000C9465000C946500BC
:100030000C9465000C9465000C9465000C946500AC
:100040000C9465000C9465000C9467000C9465009A
:100050000C9465000C9465000C9465000C9465008C
:100060000C9465000C9465000C9465000C9465007C
:100070000C9465000C9465000C9465000C9465006C
:100080000C9465000C9465000C94650011241FBE4F
:10009000CFEFD0E1DEBFCDBF15E0A0E0B1E0EEEDE7
:1000A000F3E000E00BBF02C007900D92A430B1074F
:1000B000D9F715E0A4E0B5E001C01D92A530B10765
:1000C000E1F70E9405010C94ED010C9400001F92D1
:1000D0000F920FB60F920BB60F9211242F933F93EE
:1000E0008F939F93EF93FF939CB180910105209193
:1000F0000305821720F530910005E32FF0E0EE0FA5
:10010000FF1FE295F295F07FFE27E07FFE27E80FC4
:10011000F11DE050FF4F90838F5F809301058217A0
:1001200008F45EC03F5F30930005809102053817E8
:1001300008F056C0809104058093010551C09233A8
:1001400039F1933330F4903351F0913309F048C0D2
:1001500012C0933359F1943309F042C035C0109264
:1001600000051092010580E28093020510920405BB
:100170008093030535C0109200051092010588E0B8
:10018000809302051092040580E28093030528C045
:1001900088E0809300051092010580E180930205BC
:1001A0001092040580E2809303051AC080E18093D9
:1001B00000051092010588E1809302051092040564
:1001C00080E2809303050CC088E1809300051092C3
:1001D000010580E2809302051092040580930305D7
:1001E000FF91EF919F918F913F912F910F900BBEB7
:1001F0000F900FBE0F901F90189583E089B988E982
:100200008AB986E0809395000895EF92FF920F934C
:100210001F938FEF8ABB84BB809364001BBA81E07D
:1002200085BB109265000E94FD00789483E0E5E6AE
:10023000F0E09FEF10822FEF3FE34BE02150304082
:100240004040E1F700C0000090832FEF3FE34BE018
:10025000215030404040E1F700C00000815051F78C
:1002600000E0FF24EE24EA9401C00F2D202F30E09F
:10027000A901440F551F42955295507F5427407F46
:10028000542740505F4F220F331F22953295307F05
:100290003227207F322720503D4F1F2DA12FB0E065
:1002A000FA01EA0FFB1FA20FB31F8C91829586956E
:1002B000869583709BB36081629566956695637041
:1002C00070E06095709562957295707F7627607F7B
:1002D000762760739F7C692B6BBB65B390E080953C
:1002E0009095880F991F8670962F997F892B85BBD3
:1002F000DE98DE9A8C9182958F709BB360816295B7
:100300006F7070E06095709562957295707F76273A
:10031000607F762760739F7C692B6BBB65B390E031
:1003200080959095880F991F8670962F997F892BBD
:1003300085BBDE98DE9A8C91869586959BB360810D
:100340006695669570E06095709562957295707F80
:100350007627607F762760739F7C692B6BBB65B3C4
:1003600090E080959095880F991F8670962F997FC1
:10037000892B85BBDE98DE9A8C919BB3608170E0FF
:100380006095709562957295707F7627607F76276D
:1003900060739F7C692B6BBB65B390E080959095F3
:1003A000880F991F8670962F997F892B85BBDE98C1
:1003B000DE9A1F5F103209F071CF85B3E5BA8BB3B7
:1003C000902F9F70807F892B8BBBDF9ADF98A89836
:0E03D0000F5F003108F049CF49CFF894FFCFFE
:1003DE00AAAAAAAAAAAAAAAAAAAAAAAAAAAAAAAA6F
:1003EE00AAAAAAAAAAAAAAAAAAAAAAAAAAAAAAAA5F
:1003FE0040000000000000000000000000000000AF
:10040E0000000000000000000000000000000001DD
:10041E00400000000000000000000000000000008E
:10042E000000000000000000000000000AAAA00169
:10043E0040280A15553C0000000000000000000096
:10044E00000000000000000000000000000000019D
:10045E0040280A15553C0000000000000000000076
:10046E0000000000000000000000000005555001D3
:10047E0040280A14000000000000000000000000E8
:10048E00000000000000000000000000000000015D
:10049E0040280A14003C000000000000000000008C
:1004AE000000000000000000000000000FFFF0013F
:1004BE00402AAA15543C0000000000000000000075
:1004CE00000000000000000000000000000000011D
:1004DE00402AAA15543C0000000000000000000055
:1004EE0000000000000000000000000000000001FD
:1004FE0040280A14003C000000000000000000002C
:10050E0000000000000000000000000000000001DC
:10051E0040280A14003C000000000000000000000B
:10052E000000000000000000000000000AAAA00168
:10053E0040280A15553C0000000000000000000095
:10054E0000000000000000000000000005555001F2
:10055E0040280A15553C0000000000000000000075
:10056E000000000000000000000000000FFFF0017E
:10057E00400000000000000000000000000000002D
:10058E00000000000000000000000000000000015C
:10059E00400000000000000000000000000000000D
:1005AE00000000000000000000000000000000013C
:1005BE0040000000000000000000000000000000ED
:1005CE00000000000000000000000000000000011C
:1005DE0044000002000000000000000000000000C7
:1005EE0000000000000000000000000000000001FC
:1005FE0041000008000000000000000000000000A4
:10060E0000000000000000000000000000000001DB
:10061E00404000200000000000000000000000002C
:10062E0000000000000000000000000000000001BB
:10063E0040100080000000000000000000000000DC
:10064E00000000000000000000000000000000019B
:10065E004004020000000000000000000000000046
:10066E00000000000000000000000000000000017B
:10067E004001080000000000000000000000000023
:10068E00000000000000000000000000000000015B
:10069E0040006000000000000000000000000000AC
:1006AE00000000000000000000000000000000013B
:1006BE00400090000000000000000000000000005C
:1006CE00000000000000000000000000000000011B
:1006DE0040020400000000000000000000000000C6
:1006EE0000000000000000000000000000000001FB
:1006FE0040080100000000000000000000000000A3
:10070E0000000000000000000000000000000001DA
:10071E00402000400000000000000000000000002B
:10072E0000000000000000000000000000000001BA
:10073E0040800010000000000000000000000000DB
:10074E00000000000000000000000000000000019A
:10075E004200000400000000000000000000000045
:10076E00000000000000000000000000000000017A
:10077E004800000100000000000000000000000022
:10078E00000000000000000000000000000000015A
:10079E00400000000000000000000000000000000B
:1007AE00000000000000000000000000000000013A
:1007BE00AAAAAAAAAAAAAAAAAAAAAAAAAAAAAAAA8B
:1007CE00AAAAAAAAAAAAAAAAAAAAAAAAAAAAAAAA7B
:0407DE002020202097
:00000001FF
